{
  "contractName": "SupplyChain",
  "abi": [
    {
      "inputs": [],
      "stateMutability": "nonpayable",
      "type": "constructor"
    },
    {
      "inputs": [
        {
          "internalType": "uint256",
          "name": "",
          "type": "uint256"
        }
      ],
      "name": "CERT",
      "outputs": [
        {
          "internalType": "address",
          "name": "addr",
          "type": "address"
        },
        {
          "internalType": "uint256",
          "name": "id",
          "type": "uint256"
        },
        {
          "internalType": "string",
          "name": "name",
          "type": "string"
        },
        {
          "internalType": "string",
          "name": "place",
          "type": "string"
        }
      ],
      "stateMutability": "view",
      "type": "function"
    },
    {
      "inputs": [],
      "name": "CertCtr",
      "outputs": [
        {
          "internalType": "uint256",
          "name": "",
          "type": "uint256"
        }
      ],
      "stateMutability": "view",
      "type": "function"
    },
    {
      "inputs": [
        {
          "internalType": "uint256",
          "name": "",
          "type": "uint256"
        }
      ],
      "name": "DIS",
      "outputs": [
        {
          "internalType": "address",
          "name": "addr",
          "type": "address"
        },
        {
          "internalType": "uint256",
          "name": "id",
          "type": "uint256"
        },
        {
          "internalType": "string",
          "name": "name",
          "type": "string"
        },
        {
          "internalType": "string",
          "name": "place",
          "type": "string"
        }
      ],
      "stateMutability": "view",
      "type": "function"
    },
    {
      "inputs": [
        {
          "internalType": "uint256",
          "name": "",
          "type": "uint256"
        }
      ],
      "name": "FertilizerStock",
      "outputs": [
        {
          "internalType": "uint256",
          "name": "id",
          "type": "uint256"
        },
        {
          "internalType": "string",
          "name": "name",
          "type": "string"
        },
        {
          "internalType": "uint256",
          "name": "quantity",
          "type": "uint256"
        },
        {
          "internalType": "string",
          "name": "city",
          "type": "string"
        },
        {
          "internalType": "uint256",
          "name": "subsidyprice",
          "type": "uint256"
        },
        {
          "internalType": "uint256",
          "name": "manfprice",
          "type": "uint256"
        },
        {
          "internalType": "uint256",
          "name": "MANid",
          "type": "uint256"
        },
        {
          "internalType": "uint256",
          "name": "CERid",
          "type": "uint256"
        },
        {
          "internalType": "uint256",
          "name": "DISid",
          "type": "uint256"
        },
        {
          "internalType": "uint256",
          "name": "RETid",
          "type": "uint256"
        },
        {
          "internalType": "uint256",
          "name": "sendsubsidy",
          "type": "uint256"
        },
        {
          "internalType": "enum SupplyChain.STAGE",
          "name": "stage",
          "type": "uint8"
        }
      ],
      "stateMutability": "view",
      "type": "function"
    },
    {
      "inputs": [
        {
          "internalType": "uint256",
          "name": "",
          "type": "uint256"
        }
      ],
      "name": "MAN",
      "outputs": [
        {
          "internalType": "address",
          "name": "addr",
          "type": "address"
        },
        {
          "internalType": "uint256",
          "name": "id",
          "type": "uint256"
        },
        {
          "internalType": "string",
          "name": "name",
          "type": "string"
        },
        {
          "internalType": "string",
          "name": "place",
          "type": "string"
        }
      ],
      "stateMutability": "view",
      "type": "function"
    },
    {
      "inputs": [],
      "name": "Owner",
      "outputs": [
        {
          "internalType": "address",
          "name": "",
          "type": "address"
        }
      ],
      "stateMutability": "view",
      "type": "function"
    },
    {
      "inputs": [
        {
          "internalType": "uint256",
          "name": "",
          "type": "uint256"
        }
      ],
      "name": "RET",
      "outputs": [
        {
          "internalType": "address",
          "name": "addr",
          "type": "address"
        },
        {
          "internalType": "uint256",
          "name": "id",
          "type": "uint256"
        },
        {
          "internalType": "string",
          "name": "name",
          "type": "string"
        },
        {
          "internalType": "string",
          "name": "place",
          "type": "string"
        }
      ],
      "stateMutability": "view",
      "type": "function"
    },
    {
      "inputs": [],
      "name": "disCtr",
      "outputs": [
        {
          "internalType": "uint256",
          "name": "",
          "type": "uint256"
        }
      ],
      "stateMutability": "view",
      "type": "function"
    },
    {
      "inputs": [],
      "name": "fertilizerCtr",
      "outputs": [
        {
          "internalType": "uint256",
          "name": "",
          "type": "uint256"
        }
      ],
      "stateMutability": "view",
      "type": "function"
    },
    {
      "inputs": [],
      "name": "manCtr",
      "outputs": [
        {
          "internalType": "uint256",
          "name": "",
          "type": "uint256"
        }
      ],
      "stateMutability": "view",
      "type": "function"
    },
    {
      "inputs": [],
      "name": "retCtr",
      "outputs": [
        {
          "internalType": "uint256",
          "name": "",
          "type": "uint256"
        }
      ],
      "stateMutability": "view",
      "type": "function"
    },
    {
      "inputs": [
        {
          "internalType": "uint256",
          "name": "_fertilizerID",
          "type": "uint256"
        }
      ],
      "name": "showStage",
      "outputs": [
        {
          "internalType": "string",
          "name": "",
          "type": "string"
        }
      ],
      "stateMutability": "view",
      "type": "function"
    },
    {
      "inputs": [
        {
          "internalType": "address",
          "name": "_address",
          "type": "address"
        },
        {
          "internalType": "string",
          "name": "_name",
          "type": "string"
        },
        {
          "internalType": "string",
          "name": "_place",
          "type": "string"
        }
      ],
      "name": "addManufacturer",
      "outputs": [],
      "stateMutability": "nonpayable",
      "type": "function"
    },
    {
      "inputs": [
        {
          "internalType": "address",
          "name": "_address",
          "type": "address"
        },
        {
          "internalType": "string",
          "name": "_name",
          "type": "string"
        },
        {
          "internalType": "string",
          "name": "_place",
          "type": "string"
        }
      ],
      "name": "addCertification",
      "outputs": [],
      "stateMutability": "nonpayable",
      "type": "function"
    },
    {
      "inputs": [
        {
          "internalType": "address",
          "name": "_address",
          "type": "address"
        },
        {
          "internalType": "string",
          "name": "_name",
          "type": "string"
        },
        {
          "internalType": "string",
          "name": "_place",
          "type": "string"
        }
      ],
      "name": "addDistributor",
      "outputs": [],
      "stateMutability": "nonpayable",
      "type": "function"
    },
    {
      "inputs": [
        {
          "internalType": "address",
          "name": "_address",
          "type": "address"
        },
        {
          "internalType": "string",
          "name": "_name",
          "type": "string"
        },
        {
          "internalType": "string",
          "name": "_place",
          "type": "string"
        }
      ],
      "name": "addRetailer",
      "outputs": [],
      "stateMutability": "nonpayable",
      "type": "function"
    },
    {
      "inputs": [
        {
          "internalType": "uint256",
          "name": "_fertilizerID",
          "type": "uint256"
        }
      ],
      "name": "Manufacturing",
      "outputs": [],
      "stateMutability": "nonpayable",
      "type": "function"
    },
    {
      "inputs": [
        {
          "internalType": "uint256",
          "name": "_fertilizerID",
          "type": "uint256"
        },
        {
          "internalType": "uint256",
          "name": "status",
          "type": "uint256"
        }
      ],
      "name": "Certification",
      "outputs": [],
      "stateMutability": "nonpayable",
      "type": "function"
    },
    {
      "inputs": [
        {
          "internalType": "uint256",
          "name": "_fertilizerID",
          "type": "uint256"
        }
      ],
      "name": "Distribute",
      "outputs": [],
      "stateMutability": "nonpayable",
      "type": "function"
    },
    {
      "inputs": [
        {
          "internalType": "uint256",
          "name": "_fertilizerID",
          "type": "uint256"
        }
      ],
      "name": "Retail",
      "outputs": [],
      "stateMutability": "nonpayable",
      "type": "function"
    },
    {
      "inputs": [
        {
          "internalType": "uint256",
          "name": "_fertilizerID",
          "type": "uint256"
        },
        {
          "internalType": "uint256",
          "name": "_quantity",
          "type": "uint256"
        }
      ],
      "name": "sold",
      "outputs": [],
      "stateMutability": "payable",
      "type": "function"
    },
    {
      "inputs": [
        {
          "internalType": "uint256",
          "name": "_fertilizerID",
          "type": "uint256"
        },
        {
          "internalType": "uint256",
          "name": "_mval",
          "type": "uint256"
        }
      ],
      "name": "subsidysold",
      "outputs": [],
      "stateMutability": "payable",
      "type": "function"
    },
    {
      "inputs": [
        {
          "internalType": "string",
          "name": "_name",
          "type": "string"
        },
        {
          "internalType": "uint256",
          "name": "_quantity",
          "type": "uint256"
        },
        {
          "internalType": "string",
          "name": "_city",
          "type": "string"
        },
        {
          "internalType": "uint256",
          "name": "_subsidyprice",
          "type": "uint256"
        },
        {
          "internalType": "uint256",
          "name": "_manfprice",
          "type": "uint256"
        },
        {
          "internalType": "uint256",
          "name": "_manid",
          "type": "uint256"
        }
      ],
      "name": "addFertilizer",
      "outputs": [],
      "stateMutability": "nonpayable",
      "type": "function"
    },
    {
      "inputs": [],
      "name": "checkOwner",
      "outputs": [
        {
          "internalType": "bool",
          "name": "",
          "type": "bool"
        }
      ],
      "stateMutability": "view",
      "type": "function"
    }
  ],
  "bytecode": "0x60806040526000600155600060025560006003556000600455600060055534801561002957600080fd5b50600080546001600160a01b03191633179055611b308061004b6000396000f3fe60806040526004361061014b5760003560e01c80636a992c9f116100b6578063cdbce03d1161006f578063cdbce03d14610399578063db72243d146103bb578063dbae5842146103ce578063e101a2e0146103ee578063e44218a91461041b578063f620efa81461043b5761014b565b80636a992c9f146102e25780637e43d94d14610302578063857ddb0414610317578063a48d335a14610337578063b4a99a4e14610357578063cc403069146103795761014b565b80633d753a1c116101085780633d753a1c14610238578063438e9c4d146102585780634def474a1461026d57806359bdb2b81461028d57806359bf286f146102a257806367504b99146102c25761014b565b806301dbee3b1461015057806305e9c1ff14610172578063224860e4146101855780632a4af440146101c65780632b0187ac146101e65780632bdb2e6b14610216575b600080fd5b34801561015c57600080fd5b5061017061016b366004611874565b610450565b005b610170610180366004611874565b61051d565b34801561019157600080fd5b506101a56101a036600461185c565b6106c7565b6040516101bd9c9b9a99989796959493929190611990565b60405180910390f35b3480156101d257600080fd5b506101706101e1366004611758565b610836565b3480156101f257600080fd5b5061020661020136600461185c565b6108f7565b6040516101bd94939291906118f4565b34801561022257600080fd5b5061022b610a3a565b6040516101bd9190611987565b34801561024457600080fd5b5061017061025336600461185c565b610a40565b34801561026457600080fd5b5061022b610ae6565b34801561027957600080fd5b5061017061028836600461185c565b610aec565b34801561029957600080fd5b5061022b610b8d565b3480156102ae57600080fd5b506102066102bd36600461185c565b610b93565b3480156102ce57600080fd5b506101706102dd3660046117d6565b610bc5565b3480156102ee57600080fd5b506101706102fd366004611758565b610d7c565b34801561030e57600080fd5b5061022b610e1c565b34801561032357600080fd5b50610170610332366004611758565b610e22565b34801561034357600080fd5b5061017061035236600461185c565b610ebf565b34801561036357600080fd5b5061036c610f73565b6040516101bd91906118e0565b34801561038557600080fd5b5061020661039436600461185c565b610f82565b3480156103a557600080fd5b506103ae610fb4565b6040516101bd9190611938565b6101706103c9366004611874565b610fd7565b3480156103da57600080fd5b506101706103e9366004611758565b6110c9565b3480156103fa57600080fd5b5061040e61040936600461185c565b611166565b6040516101bd9190611943565b34801561042757600080fd5b5061020661043636600461185c565b611453565b34801561044757600080fd5b5061022b611485565b60008211801561046257506001548211155b61046b57600080fd5b60006104763361148b565b90506000811161048557600080fd5b60016000848152600660208190526040909120600b015460ff16908111156104bd57634e487b7160e01b600052602160045260246000fd5b146104c757600080fd5b6000839052600660205260018214156104fb576000838152600660205260409020600b01805460ff19166002179055610518565b6000838152600660205260409020600b01805460ff191660031790555b505050565b60008281526006602081905260408220015490831580159061054157506001548411155b61054a57600080fd5b60056000858152600660208190526040909120600b015460ff169081111561058257634e487b7160e01b600052602160045260246000fd5b1461058c57600080fd5b506000818152600860205260408082205490516001600160a01b039091169190829034906105b990610fd4565b60006040518083038185875af1925050503d80600081146105f6576040519150601f19603f3d011682016040523d82523d6000602084013e6105fb565b606091505b50509050806106255760405162461bcd60e51b815260040161061c9061195d565b60405180910390fd5b600085815260066020526040902060020154610642908590611a61565b60008681526006602052604090206002810191909155600401546106669085611a42565b6000868152600660205260409020600a01546106829190611a2a565b6000868152600660205260409020600a810191909155600201546106c0576000858152600660208190526040909120600b01805460ff191690911790555b5050505050565b600660205260009081526040902080546001820180549192916106e990611a78565b80601f016020809104026020016040519081016040528092919081815260200182805461071590611a78565b80156107625780601f1061073757610100808354040283529160200191610762565b820191906000526020600020905b81548152906001019060200180831161074557829003601f168201915b50505050509080600201549080600301805461077d90611a78565b80601f01602080910402602001604051908101604052809291908181526020018280546107a990611a78565b80156107f65780601f106107cb576101008083540402835291602001916107f6565b820191906000526020600020905b8154815290600101906020018083116107d957829003601f168201915b505050600484015460058501546006860154600787015460088801546009890154600a8a0154600b909a0154989995989497509295509093909260ff168c565b6000546001600160a01b0316331461084d57600080fd5b6004805490600061085d83611ab3565b9091555050604080516080810182526001600160a01b03858116825260045460208084018281528486018881526060860188905260009384526009835295909220845181546001600160a01b03191694169390931783559051600183015592518051929391926108d39260028501920190611638565b50606082015180516108ef916003840191602090910190611638565b505050505050565b6009602052600090815260409020805460018201546002830180546001600160a01b0390931693919261092990611a78565b80601f016020809104026020016040519081016040528092919081815260200182805461095590611a78565b80156109a25780601f10610977576101008083540402835291602001916109a2565b820191906000526020600020905b81548152906001019060200180831161098557829003601f168201915b5050505050908060030180546109b790611a78565b80601f01602080910402602001604051908101604052809291908181526020018280546109e390611a78565b8015610a305780601f10610a0557610100808354040283529160200191610a30565b820191906000526020600020905b815481529060010190602001808311610a1357829003601f168201915b5050505050905084565b60045481565b600081118015610a5257506001548111155b610a5b57600080fd5b6000610a66336114fd565b905060008111610a7557600080fd5b60046000838152600660208190526040909120600b015460ff1690811115610aad57634e487b7160e01b600052602160045260246000fd5b14610ab757600080fd5b600082815260066020526040902060098101829055600b0180546005919060ff19166001835b02179055505050565b60025481565b600081118015610afe57506001548111155b610b0757600080fd5b6000610b1233611566565b905060008111610b2157600080fd5b60026000838152600660208190526040909120600b015460ff1690811115610b5957634e487b7160e01b600052602160045260246000fd5b14610b6357600080fd5b600082815260066020526040902060088101829055600b0180546004919060ff1916600183610add565b60015481565b600a602052600090815260409020805460018201546002830180546001600160a01b0390931693919261092990611a78565b6000546001600160a01b03163314610bdc57600080fd5b6000600254118015610bf057506000600454115b8015610bfe57506000600554115b610c0757600080fd5b60018054906000610c1783611ab3565b919050555060405180610180016040528060015481526020018781526020018681526020018581526020018481526020018381526020018281526020016000815260200160008152602001600081526020016000815260200160006006811115610c9157634e487b7160e01b600052602160045260246000fd5b9052600180546000908152600660209081526040909120835181558382015180519193610cc49390850192910190611638565b506040820151600282015560608201518051610cea916003840191602090910190611638565b506080820151816004015560a0820151816005015560c0820151816006015560e082015181600701556101008201518160080155610120820151816009015561014082015181600a015561016082015181600b0160006101000a81548160ff02191690836006811115610d6d57634e487b7160e01b600052602160045260246000fd5b02179055505050505050505050565b6000546001600160a01b03163314610d9357600080fd5b60028054906000610da383611ab3565b9091555050604080516080810182526001600160a01b0385811682526002805460208085018281528587018981526060870189905260009384526008835296909220855181546001600160a01b03191695169490941784559051600184015593518051939492936108d393928501929190910190611638565b60055481565b6000546001600160a01b03163314610e3957600080fd5b60058054906000610e4983611ab3565b9091555050604080516080810182526001600160a01b0385811682526005546020808401828152848601888152606086018890526000938452600a835295909220845181546001600160a01b03191694169390931783559051600183015592518051929391926108d39260028501920190611638565b600081118015610ed157506001548111155b610eda57600080fd5b6000610ee5336115cf565b905060008111610ef457600080fd5b600082815260066020819052604090912001548114610f1257600080fd5b60008281526006602081905260408220600b015460ff1690811115610f4757634e487b7160e01b600052602160045260246000fd5b14610f5157600080fd5b6000828152600660205260409020600b0180546001919060ff19168280610add565b6000546001600160a01b031681565b6008602052600090815260409020805460018201546002830180546001600160a01b0390931693919261092990611a78565b600080546001600160a01b0316331415610fd057506001610fd4565b5060005b90565b6000546001600160a01b03163314610fee57600080fd5b600082815260066020818152604080842090920154808452600890915281832054915190926001600160a01b0390921691908290349061102d90610fd4565b60006040518083038185875af1925050503d806000811461106a576040519150601f19603f3d011682016040523d82523d6000602084013e61106f565b606091505b50509050806110905760405162461bcd60e51b815260040161061c9061195d565b6000858152600660205260409020600a01546110ad908590611a61565b600095865260066020526040909520600a019490945550505050565b6000546001600160a01b031633146110e057600080fd5b600380549060006110f083611ab3565b9091555050604080516080810182526001600160a01b03858116825260035460208084018281528486018881526060860188905260009384526007835295909220845181546001600160a01b03191694169390931783559051600183015592518051929391926108d39260028501920190611638565b606060006001541161117757600080fd5b60008281526006602081905260408220600b015460ff16908111156111ac57634e487b7160e01b600052602160045260246000fd5b14156111e1575060408051808201909152601281527111995c9d1a5b1a5e995c8813dc99195c995960721b602082015261144e565b60016000838152600660208190526040909120600b015460ff169081111561121957634e487b7160e01b600052602160045260246000fd5b141561124f57506040805180820190915260138152724d616e75666163747572696e6720537461676560681b602082015261144e565b60026000838152600660208190526040909120600b015460ff169081111561128757634e487b7160e01b600052602160045260246000fd5b14156112b3575060408051808201909152600981526810d95c9d1a599a595960ba1b602082015261144e565b60036000838152600660208190526040909120600b015460ff16908111156112eb57634e487b7160e01b600052602160045260246000fd5b1415611316575060408051808201909152600881526714995d1d5c9b995960c21b602082015261144e565b60046000838152600660208190526040909120600b015460ff169081111561134e57634e487b7160e01b600052602160045260246000fd5b14156113835750604080518082019091526012815271446973747269627574696f6e20537461676560701b602082015261144e565b60056000838152600660208190526040909120600b015460ff16908111156113bb57634e487b7160e01b600052602160045260246000fd5b14156113ea575060408051808201909152600c81526b52657461696c20537461676560a01b602082015261144e565b6000828152600660208190526040909120600b015460ff168181111561142057634e487b7160e01b600052602160045260246000fd5b141561144e575060408051808201909152600f81526e11995c9d1a5b1a5e995c8814dbdb19608a1b60208201525b919050565b6007602052600090815260409020805460018201546002830180546001600160a01b0390931693919261092990611a78565b60035481565b6000806003541161149b57600080fd5b60015b60035481116114f4576000818152600760205260409020546001600160a01b03848116911614156114e257600090815260076020526040902060010154905061144e565b806114ec81611ab3565b91505061149e565b50600092915050565b6000806005541161150d57600080fd5b60015b60055481116114f4576000818152600a60205260409020546001600160a01b0384811691161415611554576000908152600a6020526040902060010154905061144e565b8061155e81611ab3565b915050611510565b6000806004541161157657600080fd5b60015b60045481116114f4576000818152600960205260409020546001600160a01b03848116911614156115bd57600090815260096020526040902060010154905061144e565b806115c781611ab3565b915050611579565b600080600254116115df57600080fd5b60015b60025481116114f4576000818152600860205260409020546001600160a01b038481169116141561162657600090815260086020526040902060010154905061144e565b8061163081611ab3565b9150506115e2565b82805461164490611a78565b90600052602060002090601f01602090048101928261166657600085556116ac565b82601f1061167f57805160ff19168380011785556116ac565b828001600101855582156116ac579182015b828111156116ac578251825591602001919060010190611691565b506116b89291506116bc565b5090565b5b808211156116b857600081556001016116bd565b600082601f8301126116e1578081fd5b813567ffffffffffffffff808211156116fc576116fc611ae4565b604051601f8301601f19908116603f0116810190828211818310171561172457611724611ae4565b8160405283815286602085880101111561173c578485fd5b8360208701602083013792830160200193909352509392505050565b60008060006060848603121561176c578283fd5b83356001600160a01b0381168114611782578384fd5b9250602084013567ffffffffffffffff8082111561179e578384fd5b6117aa878388016116d1565b935060408601359150808211156117bf578283fd5b506117cc868287016116d1565b9150509250925092565b60008060008060008060c087890312156117ee578182fd5b863567ffffffffffffffff80821115611805578384fd5b6118118a838b016116d1565b975060208901359650604089013591508082111561182d578384fd5b5061183a89828a016116d1565b945050606087013592506080870135915060a087013590509295509295509295565b60006020828403121561186d578081fd5b5035919050565b60008060408385031215611886578182fd5b50508035926020909101359150565b60008151808452815b818110156118ba5760208185018101518683018201520161189e565b818111156118cb5782602083870101525b50601f01601f19169290920160200192915050565b6001600160a01b0391909116815260200190565b600060018060a01b03861682528460208301526080604083015261191b6080830185611895565b828103606084015261192d8185611895565b979650505050505050565b901515815260200190565b6000602082526119566020830184611895565b9392505050565b60208082526010908201526f2a3930b739b332b9103330b4b632b21760811b604082015260600190565b90815260200190565b60006101808e83528060208401526119aa8184018f611895565b90508c604084015282810360608401526119c4818d611895565b9150508960808301528860a08301528760c08301528660e083015285610100830152846101208301528361014083015260078310611a1257634e487b7160e01b600052602160045260246000fd5b826101608301529d9c50505050505050505050505050565b60008219821115611a3d57611a3d611ace565b500190565b6000816000190483118215151615611a5c57611a5c611ace565b500290565b600082821015611a7357611a73611ace565b500390565b600281046001821680611a8c57607f821691505b60208210811415611aad57634e487b7160e01b600052602260045260246000fd5b50919050565b6000600019821415611ac757611ac7611ace565b5060010190565b634e487b7160e01b600052601160045260246000fd5b634e487b7160e01b600052604160045260246000fdfea26469706673582212201e5004f92fc8db7645625ea6f46c9d40b9f396b7b76a94b6d2c98ba83998e74464736f6c63430008010033",
  "immutableReferences": {},
  "source": "// SPDX-License-Identifier: MIT\npragma solidity >=0.6.0 <0.9.0;\n\ncontract  SupplyChain {\n    //Smart Contract owner will be the person who deploys the contract only he can authorize various roles like retailer, Manufacturer,etc\n    address public Owner;\n\n    //note this constructor will be called when smart contract will be deployed on blockchain\n    constructor() public {\n        Owner = msg.sender;\n    }\n\n    //Roles (flow of  supply chain)\n    // RawMaterialSupplier; //This is where Manufacturer will get raw materials to make fertilizers\n    // Manufacturer;  //Various  guidelines should be followed by this person\n    // Distributor; //This guy distributes the fertilizers to retailers\n    // Retailer; //Normal customer buys from the retailer\n\n    //modifier to make sure only the owner is using the function\n    modifier onlyByOwner() {\n        require(msg.sender == Owner);\n        _;\n    }\n\n    //stages of a fertilizer in  supply chain\n    enum STAGE {\n        Init,\n        Manufacture,\n        Certified,\n        Returned,\n        Distribution,\n        Retail,\n        sold\n    }\n    //using this we are going to track every single fertilizer the owner orders\n\n    //Fertilizer count\n    uint256 public fertilizerCtr = 0;\n    // //Raw material supplier count\n    // uint256 public rmsCtr = 0;\n    //Manufacturer count\n    uint256 public manCtr = 0;\n    //distributor count\n    uint256 public CertCtr = 0;\n    //Certification Agency count\n    uint256 public disCtr = 0;\n    //retailer count\n    uint256 public retCtr = 0;\n    //subsidy counter of sell product\n   // uint256 public subCtr = 0;\n\n    //To store information about the fertilizer\n    struct fertilizer {\n        uint256 id; //unique fertilizer id\n        string name; //name of the fertilizer\n       // string description; //about fertilizer\n        uint256 quantity; // quantity in kg\n        string city; //about city\n        uint256 subsidyprice; //subsidy price per kg\n       \n        uint256 manfprice; //manf price per kg\n        \n       \n        uint256 MANid; //id of the Manufacturer for this particular fertilizer\n        uint256 CERid; //id of the Manufacturer for this particular certification agency\n        uint256 DISid; //id of the distributor for this particular fertilizer\n        uint256 RETid; //id of the retailer for this particular fertilizer\n        uint256 sendsubsidy; //total money of subsidy to send\n        STAGE stage; //current fertilizer stage\n    }\n\n    //To store all the fertilizers on the blockchain\n    mapping(uint256 => fertilizer) public FertilizerStock;\n\n    //To show status to client applications\n    function showStage(uint256 _fertilizerID)\n        public\n        view\n        returns (string memory)\n    {\n        require(fertilizerCtr > 0);\n        if (FertilizerStock[_fertilizerID].stage == STAGE.Init)\n            return \"Fertilizer Ordered\";\n       // else if (FertilizerStock[_fertilizerID].stage == STAGE.RawMaterialSupply)\n       //     return \"Raw Material Supply Stage\";\n        else if (FertilizerStock[_fertilizerID].stage == STAGE.Manufacture)\n            return \"Manufacturing Stage\";\n        else if (FertilizerStock[_fertilizerID].stage == STAGE.Certified)\n            return \"Certified\";\n        else if (FertilizerStock[_fertilizerID].stage == STAGE.Returned)\n            return \"Returned\";\n        else if (FertilizerStock[_fertilizerID].stage == STAGE.Distribution)\n            return \"Distribution Stage\";\n        else if (FertilizerStock[_fertilizerID].stage == STAGE.Retail)\n            return \"Retail Stage\";\n        else if (FertilizerStock[_fertilizerID].stage == STAGE.sold)\n            return \"Fertilizer Sold\";\n    }\n\n    // //To store information about raw material supplier\n    // struct rawMaterialSupplier {\n    //     address addr;\n    //     uint256 id; //supplier id\n    //     string name; //Name of the raw material supplier\n    //     string place; //Place the raw material supplier is based in\n    // }\n\n    // //To store all the raw material suppliers on the blockchain\n    // mapping(uint256 => rawMaterialSupplier) public RMS;\n\n    //To store information about manufacturer\n    struct manufacturer {\n        address  addr;\n        uint256 id; //manufacturer id\n        string name; //Name of the manufacturer\n        string place; //Place the manufacturer is based in\n        \n    }\n\n    //To store all the manufacturers on the blockchain\n    mapping(uint256 => certification) public  CERT;\n\n    struct certification {\n        address  addr;\n        uint256 id; //agency id\n        string name; //Name of the agency\n        string place; //Place the agency is based in\n    }\n\n    //To store all the manufacturers on the blockchain\n    mapping(uint256 => manufacturer) public  MAN;\n\n    //To store information about distributor\n    struct distributor {\n        address addr;\n        uint256 id; //distributor id\n        string name; //Name of the distributor\n        string place; //Place the distributor is based in\n    }\n\n    //To store all the distributors on the blockchain\n    mapping(uint256 => distributor) public DIS;\n\n    //To store information about retailer\n    struct retailer {\n        address addr;\n        uint256 id; //retailer id\n        string name; //Name of the retailer\n        string place; //Place the retailer is based in\n    }\n\n    //To store all the retailers on the blockchain\n    mapping(uint256 => retailer) public RET;\n\n//////to store info about subsidy\n    //  struct subsidy {\n    \n    //     uint256 manid ;\n    //     uint256 retid ;\n    //     uint256 ferid ;\n    //     uint256 quantity ;\n       \n        \n    // }\n  // store all subsidy on blockchian\n  //   mapping(uint256 => subsidy) public SUB;\n\n    //To add manufacturer. Only contract owner can add a new manufacturer\n    function addManufacturer(\n        address _address,\n        string memory _name,\n        string memory _place\n\n    ) public onlyByOwner() {\n        manCtr++;\n        MAN[manCtr] = manufacturer(_address, manCtr, _name, _place );\n    }\n\n    function addCertification(\n        address _address,\n        string memory _name,\n        string memory _place\n\n    ) public onlyByOwner() {\n        CertCtr++;\n        CERT[CertCtr] = certification(_address, CertCtr, _name, _place );\n    }\n\n    //To add distributor. Only contract owner can add a new distributor\n    function addDistributor(\n        address _address,\n        string memory _name,\n        string memory _place\n    ) public onlyByOwner() {\n        disCtr++;\n        DIS[disCtr] = distributor(_address, disCtr, _name, _place);\n    }\n\n    //To add retailer. Only contract owner can add a new retailer\n    function addRetailer(\n        address _address,\n        string memory _name,\n        string memory _place\n    ) public onlyByOwner() {\n        retCtr++;\n        RET[retCtr] = retailer(_address, retCtr, _name, _place);\n    }\n ////add of subsidy detail at a time farmer buy \n    // function addsubsidy(\n        \n    //     uint256 _manid, \n    //     uint256 _retid, \n    //     uint256 _ferid,\n    //     uint256 _quantity \n    // ) public  {\n    //     subCtr++;\n    //     SUB[subCtr] = subsidy( subctr,_manid, _retid, _ferid, _quantity );\n    // }\n    \n\n    //To manufacture fertilizer\n    function Manufacturing(uint256 _fertilizerID ) public {\n        require(_fertilizerID > 0 && _fertilizerID <= fertilizerCtr);\n        uint256 _id = findMAN(msg.sender);\n        require(_id > 0);\n        require(FertilizerStock[_fertilizerID].MANid == _id); ////to check valid man id\n        require(FertilizerStock[_fertilizerID].stage == STAGE.Init);\n        \n        FertilizerStock[_fertilizerID].stage = STAGE.Manufacture;\n    }\n\n    //To check if Manufacturer is available in the blockchain\n    function findMAN(address _address) private view returns (uint256) {\n        require(manCtr > 0);\n        for (uint256 i = 1; i <= manCtr; i++) {\n            if (MAN[i].addr == _address) return MAN[i].id;\n        }\n        return 0;\n    }\n\n    function Certification(uint256 _fertilizerID ,uint256 status) public {\n        require(_fertilizerID > 0 && _fertilizerID <= fertilizerCtr);\n        uint256 _id = findCert(msg.sender);\n        require(_id > 0);\n        require(FertilizerStock[_fertilizerID].stage == STAGE.Manufacture);\n        FertilizerStock[_fertilizerID].CERid == _id;\n        if(status==1)\n        FertilizerStock[_fertilizerID].stage = STAGE.Certified;\n        else\n        FertilizerStock[_fertilizerID].stage = STAGE.Returned;\n    }\n\n    //To check if Certification agency is available in the blockchain\n    function findCert(address _address) private view returns (uint256) {\n        require(CertCtr > 0);\n        for (uint256 i = 1; i <= CertCtr; i++) {\n            if (CERT[i].addr == _address) return CERT[i].id;\n        }\n        return 0;\n    }\n\n\n    //To supply fertilizers from Manufacturer to distributor\n    function Distribute(uint256 _fertilizerID) public {\n        require(_fertilizerID > 0 && _fertilizerID <= fertilizerCtr);\n        uint256 _id = findDIS(msg.sender);\n        require(_id > 0);\n        require(FertilizerStock[_fertilizerID].stage == STAGE.Certified);\n        FertilizerStock[_fertilizerID].DISid = _id;\n        FertilizerStock[_fertilizerID].stage = STAGE.Distribution;\n    }\n\n    //To check if distributor is available in the blockchain\n    function findDIS(address _address) private view returns (uint256) {\n        require(disCtr > 0);\n        for (uint256 i = 1; i <= disCtr; i++) {\n            if (DIS[i].addr == _address) return DIS[i].id;\n        }\n        return 0;\n    }\n\n    //To supply fertilizers from distributor to retailer\n    function Retail(uint256 _fertilizerID) public {\n        require(_fertilizerID > 0 && _fertilizerID <= fertilizerCtr);\n        uint256 _id = findRET(msg.sender);\n        require(_id > 0);\n        require(FertilizerStock[_fertilizerID].stage == STAGE.Distribution);\n        FertilizerStock[_fertilizerID].RETid = _id;\n        FertilizerStock[_fertilizerID].stage = STAGE.Retail;\n    }\n\n    //To check if retailer is available in the blockchain\n    function findRET(address _address) private view returns (uint256) {\n        require(retCtr > 0);\n        for (uint256 i = 1; i <= retCtr; i++) {\n            if (RET[i].addr == _address) return RET[i].id;\n        }\n        return 0;\n    }\n\n   //To sell fertilizers from retailer to consumer  // fer id man id \n    function sold(uint256 _fertilizerID,uint256 _quantity) public payable {\n       uint256 manID = FertilizerStock[_fertilizerID].MANid ;\n       address payable recipient;\n        require(_fertilizerID > 0 && _fertilizerID <= fertilizerCtr);\n        require(FertilizerStock[_fertilizerID].stage == STAGE.Retail);\n        recipient=payable(MAN[manID].addr);\n        (bool success, ) = recipient.call{value: msg.value}(\"\");\n        require(success, \"Transfer failed.\");\n        FertilizerStock[_fertilizerID].quantity = (FertilizerStock[_fertilizerID].quantity)-( _quantity);\n        FertilizerStock[_fertilizerID].sendsubsidy = (FertilizerStock[_fertilizerID].sendsubsidy)+(_quantity * FertilizerStock[_fertilizerID].subsidyprice); \n        if(FertilizerStock[_fertilizerID].quantity <=0 ){\n        FertilizerStock[_fertilizerID].stage = STAGE.sold;}\n        \n        //FertilizerStock[_fertilizerID].manfprice\n    }\n\n     function subsidysold(uint256 _fertilizerID, uint256 _mval) public payable onlyByOwner() {\n        uint256 manID = FertilizerStock[_fertilizerID].MANid ;\n       address payable recipient;\n       // require(_fertilizerID > 0 && _fertilizerID <= fertilizerCtr);\n       \n        recipient=payable(MAN[manID].addr);\n        (bool success, ) = recipient.call{value: msg.value}(\"\");\n        require(success, \"Transfer failed.\");\n        // FertilizerStock[_fertilizerID].quantity = (FertilizerStock[_fertilizerID].quantity)-( _quantity);\n         FertilizerStock[_fertilizerID].sendsubsidy = (FertilizerStock[_fertilizerID].sendsubsidy)- _mval; \n        // if(FertilizerStock[_fertilizerID].quantity <=0 ){\n        // FertilizerStock[_fertilizerID].stage = STAGE.sold;}\n        \n        //FertilizerStock[_fertilizerID].manfprice\n    }\n   \n\n    // To add new fertilizers to the stock\n    function addFertilizer(string memory _name,uint256 _quantity , \n    string memory _city , uint256 _subsidyprice, uint256 _manfprice ,uint256 _manid)\n        public\n        onlyByOwner()\n    {\n        require(/*(rmsCtr > 0) &&*/ (manCtr > 0) && (disCtr > 0) && (retCtr > 0));\n        fertilizerCtr++;\n        FertilizerStock[fertilizerCtr] = fertilizer(\n            fertilizerCtr,\n            _name,\n           // _description,\n            _quantity,\n            _city,\n            _subsidyprice,\n            _manfprice,\n            _manid,\n            0,\n            0,\n            0,\n            0,\n            STAGE.Init\n        );\n    }\n\n    function checkOwner() public view returns (bool) {\n        if(Owner==msg.sender){\n            return true;\n        }\n        else{\n            return false;\n        }\n    }\n}\n",
  "sourcePath": "D:\\Downloads\\supply-chain-truffle-react-main (1)\\supply-chain-truffle-react-main\\contracts\\SupplyChain.sol",
  "compiler": {
    "name": "solc",
    "version": "0.8.1+commit.df193b15.Emscripten.clang"
  },
  "schemaVersion": "3.4.11",
  "updatedAt": "2023-04-27T07:19:46.182Z",
  "devdoc": {
    "kind": "dev",
    "methods": {},
    "version": 1
  },
  "userdoc": {
    "kind": "user",
    "methods": {},
    "version": 1
  }
}